{
  "contractName": "MyNFT",
  "abi": [
    {
      "inputs": [],
      "stateMutability": "nonpayable",
      "type": "constructor"
    },
    {
      "anonymous": false,
      "inputs": [
        {
          "indexed": true,
          "internalType": "address",
          "name": "owner",
          "type": "address"
        },
        {
          "indexed": true,
          "internalType": "address",
          "name": "approved",
          "type": "address"
        },
        {
          "indexed": true,
          "internalType": "uint256",
          "name": "tokenId",
          "type": "uint256"
        }
      ],
      "name": "Approval",
      "type": "event"
    },
    {
      "anonymous": false,
      "inputs": [
        {
          "indexed": true,
          "internalType": "address",
          "name": "owner",
          "type": "address"
        },
        {
          "indexed": true,
          "internalType": "address",
          "name": "operator",
          "type": "address"
        },
        {
          "indexed": false,
          "internalType": "bool",
          "name": "approved",
          "type": "bool"
        }
      ],
      "name": "ApprovalForAll",
      "type": "event"
    },
    {
      "anonymous": false,
      "inputs": [
        {
          "indexed": true,
          "internalType": "address",
          "name": "from",
          "type": "address"
        },
        {
          "indexed": true,
          "internalType": "address",
          "name": "to",
          "type": "address"
        },
        {
          "indexed": true,
          "internalType": "uint256",
          "name": "tokenId",
          "type": "uint256"
        }
      ],
      "name": "Transfer",
      "type": "event"
    },
    {
      "inputs": [
        {
          "internalType": "address",
          "name": "to",
          "type": "address"
        },
        {
          "internalType": "uint256",
          "name": "tokenId",
          "type": "uint256"
        }
      ],
      "name": "approve",
      "outputs": [],
      "stateMutability": "nonpayable",
      "type": "function"
    },
    {
      "inputs": [
        {
          "internalType": "address",
          "name": "owner",
          "type": "address"
        }
      ],
      "name": "balanceOf",
      "outputs": [
        {
          "internalType": "uint256",
          "name": "",
          "type": "uint256"
        }
      ],
      "stateMutability": "view",
      "type": "function",
      "constant": true
    },
    {
      "inputs": [
        {
          "internalType": "uint256",
          "name": "tokenId",
          "type": "uint256"
        }
      ],
      "name": "getApproved",
      "outputs": [
        {
          "internalType": "address",
          "name": "",
          "type": "address"
        }
      ],
      "stateMutability": "view",
      "type": "function",
      "constant": true
    },
    {
      "inputs": [
        {
          "internalType": "address",
          "name": "owner",
          "type": "address"
        },
        {
          "internalType": "address",
          "name": "operator",
          "type": "address"
        }
      ],
      "name": "isApprovedForAll",
      "outputs": [
        {
          "internalType": "bool",
          "name": "",
          "type": "bool"
        }
      ],
      "stateMutability": "view",
      "type": "function",
      "constant": true
    },
    {
      "inputs": [],
      "name": "name",
      "outputs": [
        {
          "internalType": "string",
          "name": "",
          "type": "string"
        }
      ],
      "stateMutability": "view",
      "type": "function",
      "constant": true
    },
    {
      "inputs": [
        {
          "internalType": "uint256",
          "name": "tokenId",
          "type": "uint256"
        }
      ],
      "name": "ownerOf",
      "outputs": [
        {
          "internalType": "address",
          "name": "",
          "type": "address"
        }
      ],
      "stateMutability": "view",
      "type": "function",
      "constant": true
    },
    {
      "inputs": [
        {
          "internalType": "address",
          "name": "from",
          "type": "address"
        },
        {
          "internalType": "address",
          "name": "to",
          "type": "address"
        },
        {
          "internalType": "uint256",
          "name": "tokenId",
          "type": "uint256"
        }
      ],
      "name": "safeTransferFrom",
      "outputs": [],
      "stateMutability": "nonpayable",
      "type": "function"
    },
    {
      "inputs": [
        {
          "internalType": "address",
          "name": "from",
          "type": "address"
        },
        {
          "internalType": "address",
          "name": "to",
          "type": "address"
        },
        {
          "internalType": "uint256",
          "name": "tokenId",
          "type": "uint256"
        },
        {
          "internalType": "bytes",
          "name": "_data",
          "type": "bytes"
        }
      ],
      "name": "safeTransferFrom",
      "outputs": [],
      "stateMutability": "nonpayable",
      "type": "function"
    },
    {
      "inputs": [
        {
          "internalType": "address",
          "name": "operator",
          "type": "address"
        },
        {
          "internalType": "bool",
          "name": "approved",
          "type": "bool"
        }
      ],
      "name": "setApprovalForAll",
      "outputs": [],
      "stateMutability": "nonpayable",
      "type": "function"
    },
    {
      "inputs": [
        {
          "internalType": "bytes4",
          "name": "interfaceId",
          "type": "bytes4"
        }
      ],
      "name": "supportsInterface",
      "outputs": [
        {
          "internalType": "bool",
          "name": "",
          "type": "bool"
        }
      ],
      "stateMutability": "view",
      "type": "function",
      "constant": true
    },
    {
      "inputs": [],
      "name": "symbol",
      "outputs": [
        {
          "internalType": "string",
          "name": "",
          "type": "string"
        }
      ],
      "stateMutability": "view",
      "type": "function",
      "constant": true
    },
    {
      "inputs": [
        {
          "internalType": "uint256",
          "name": "tokenId",
          "type": "uint256"
        }
      ],
      "name": "tokenURI",
      "outputs": [
        {
          "internalType": "string",
          "name": "",
          "type": "string"
        }
      ],
      "stateMutability": "view",
      "type": "function",
      "constant": true
    },
    {
      "inputs": [
        {
          "internalType": "address",
          "name": "from",
          "type": "address"
        },
        {
          "internalType": "address",
          "name": "to",
          "type": "address"
        },
        {
          "internalType": "uint256",
          "name": "tokenId",
          "type": "uint256"
        }
      ],
      "name": "transferFrom",
      "outputs": [],
      "stateMutability": "nonpayable",
      "type": "function"
    },
    {
      "inputs": [
        {
          "internalType": "string",
          "name": "tokenURI",
          "type": "string"
        }
      ],
      "name": "pressMintButton",
      "outputs": [
        {
          "internalType": "uint256",
          "name": "",
          "type": "uint256"
        }
      ],
      "stateMutability": "nonpayable",
      "type": "function"
    }
  ],
  "bytecode": "0x60806040523480156200001157600080fd5b506040518060400160405280600781526020017f57504d204e4654000000000000000000000000000000000000000000000000008152506040518060400160405280600781526020017f57504d2d4e465400000000000000000000000000000000000000000000000000815250816000908051906020019062000096929190620000b8565b508060019080519060200190620000af929190620000b8565b505050620001cd565b828054620000c69062000168565b90600052602060002090601f016020900481019282620000ea576000855562000136565b82601f106200010557805160ff191683800117855562000136565b8280016001018555821562000136579182015b828111156200013557825182559160200191906001019062000118565b5b50905062000145919062000149565b5090565b5b80821115620001645760008160009055506001016200014a565b5090565b600060028204905060018216806200018157607f821691505b602082108114156200019857620001976200019e565b5b50919050565b7f4e487b7100000000000000000000000000000000000000000000000000000000600052602260045260246000fd5b612aea80620001dd6000396000f3fe608060405234801561001057600080fd5b50600436106100ea5760003560e01c806370a082311161008c578063a22cb46511610066578063a22cb4651461026f578063b88d4fde1461028b578063c87b56dd146102a7578063e985e9c5146102d7576100ea565b806370a08231146101f15780638d7303571461022157806395d89b4114610251576100ea565b8063095ea7b3116100c8578063095ea7b31461016d57806323b872dd1461018957806342842e0e146101a55780636352211e146101c1576100ea565b806301ffc9a7146100ef57806306fdde031461011f578063081812fc1461013d575b600080fd5b61010960048036038101906101049190611c3d565b610307565b6040516101169190612442565b60405180910390f35b6101276103e9565b604051610134919061245d565b60405180910390f35b61015760048036038101906101529190611cd0565b61047b565b60405161016491906123db565b60405180910390f35b61018760048036038101906101829190611c01565b610500565b005b6101a3600480360381019061019e9190611afb565b610618565b005b6101bf60048036038101906101ba9190611afb565b610678565b005b6101db60048036038101906101d69190611cd0565b610698565b6040516101e891906123db565b60405180910390f35b61020b60048036038101906102069190611a96565b61074a565b604051610218919061267f565b60405180910390f35b61023b60048036038101906102369190611c8f565b610802565b604051610248919061267f565b60405180910390f35b610259610839565b604051610266919061245d565b60405180910390f35b61028960048036038101906102849190611bc5565b6108cb565b005b6102a560048036038101906102a09190611b4a565b610a4c565b005b6102c160048036038101906102bc9190611cd0565b610aae565b6040516102ce919061245d565b60405180910390f35b6102f160048036038101906102ec9190611abf565b610c00565b6040516102fe9190612442565b60405180910390f35b60007f80ac58cd000000000000000000000000000000000000000000000000000000007bffffffffffffffffffffffffffffffffffffffffffffffffffffffff1916827bffffffffffffffffffffffffffffffffffffffffffffffffffffffff191614806103d257507f5b5e139f000000000000000000000000000000000000000000000000000000007bffffffffffffffffffffffffffffffffffffffffffffffffffffffff1916827bffffffffffffffffffffffffffffffffffffffffffffffffffffffff1916145b806103e257506103e182610c94565b5b9050919050565b6060600080546103f8906128df565b80601f0160208091040260200160405190810160405280929190818152602001828054610424906128df565b80156104715780601f1061044657610100808354040283529160200191610471565b820191906000526020600020905b81548152906001019060200180831161045457829003601f168201915b5050505050905090565b600061048682610cfe565b6104c5576040517f08c379a00000000000000000000000000000000000000000000000000000000081526004016104bc906125df565b60405180910390fd5b6004600083815260200190815260200160002060009054906101000a900473ffffffffffffffffffffffffffffffffffffffff169050919050565b600061050b82610698565b90508073ffffffffffffffffffffffffffffffffffffffff168373ffffffffffffffffffffffffffffffffffffffff16141561057c576040517f08c379a00000000000000000000000000000000000000000000000000000000081526004016105739061263f565b60405180910390fd5b8073ffffffffffffffffffffffffffffffffffffffff1661059b610d6a565b73ffffffffffffffffffffffffffffffffffffffff1614806105ca57506105c9816105c4610d6a565b610c00565b5b610609576040517f08c379a00000000000000000000000000000000000000000000000000000000081526004016106009061251f565b60405180910390fd5b6106138383610d72565b505050565b610629610623610d6a565b82610e2b565b610668576040517f08c379a000000000000000000000000000000000000000000000000000000000815260040161065f9061265f565b60405180910390fd5b610673838383610f09565b505050565b61069383838360405180602001604052806000815250610a4c565b505050565b6000806002600084815260200190815260200160002060009054906101000a900473ffffffffffffffffffffffffffffffffffffffff169050600073ffffffffffffffffffffffffffffffffffffffff168173ffffffffffffffffffffffffffffffffffffffff161415610741576040517f08c379a00000000000000000000000000000000000000000000000000000000081526004016107389061255f565b60405180910390fd5b80915050919050565b60008073ffffffffffffffffffffffffffffffffffffffff168273ffffffffffffffffffffffffffffffffffffffff1614156107bb576040517f08c379a00000000000000000000000000000000000000000000000000000000081526004016107b29061253f565b60405180910390fd5b600360008373ffffffffffffffffffffffffffffffffffffffff1673ffffffffffffffffffffffffffffffffffffffff168152602001908152602001600020549050919050565b600061080e6007611165565b600061081a600761117b565b90506108263382611189565b61083081846111a7565b80915050919050565b606060018054610848906128df565b80601f0160208091040260200160405190810160405280929190818152602001828054610874906128df565b80156108c15780601f10610896576101008083540402835291602001916108c1565b820191906000526020600020905b8154815290600101906020018083116108a457829003601f168201915b5050505050905090565b6108d3610d6a565b73ffffffffffffffffffffffffffffffffffffffff168273ffffffffffffffffffffffffffffffffffffffff161415610941576040517f08c379a0000000000000000000000000000000000000000000000000000000008152600401610938906124df565b60405180910390fd5b806005600061094e610d6a565b73ffffffffffffffffffffffffffffffffffffffff1673ffffffffffffffffffffffffffffffffffffffff16815260200190815260200160002060008473ffffffffffffffffffffffffffffffffffffffff1673ffffffffffffffffffffffffffffffffffffffff16815260200190815260200160002060006101000a81548160ff0219169083151502179055508173ffffffffffffffffffffffffffffffffffffffff166109fb610d6a565b73ffffffffffffffffffffffffffffffffffffffff167f17307eab39ab6107e8899845ad3d59bd9653f200f220920489ca2b5937696c3183604051610a409190612442565b60405180910390a35050565b610a5d610a57610d6a565b83610e2b565b610a9c576040517f08c379a0000000000000000000000000000000000000000000000000000000008152600401610a939061265f565b60405180910390fd5b610aa88484848461121b565b50505050565b6060610ab982610cfe565b610af8576040517f08c379a0000000000000000000000000000000000000000000000000000000008152600401610aef906125bf565b60405180910390fd5b6000600660008481526020019081526020016000208054610b18906128df565b80601f0160208091040260200160405190810160405280929190818152602001828054610b44906128df565b8015610b915780601f10610b6657610100808354040283529160200191610b91565b820191906000526020600020905b815481529060010190602001808311610b7457829003601f168201915b505050505090506000610ba2611277565b9050600081511415610bb8578192505050610bfb565b600082511115610bed578082604051602001610bd59291906123b7565b60405160208183030381529060405292505050610bfb565b610bf68461128e565b925050505b919050565b6000600560008473ffffffffffffffffffffffffffffffffffffffff1673ffffffffffffffffffffffffffffffffffffffff16815260200190815260200160002060008373ffffffffffffffffffffffffffffffffffffffff1673ffffffffffffffffffffffffffffffffffffffff16815260200190815260200160002060009054906101000a900460ff16905092915050565b60007f01ffc9a7000000000000000000000000000000000000000000000000000000007bffffffffffffffffffffffffffffffffffffffffffffffffffffffff1916827bffffffffffffffffffffffffffffffffffffffffffffffffffffffff1916149050919050565b60008073ffffffffffffffffffffffffffffffffffffffff166002600084815260200190815260200160002060009054906101000a900473ffffffffffffffffffffffffffffffffffffffff1673ffffffffffffffffffffffffffffffffffffffff1614159050919050565b600033905090565b816004600083815260200190815260200160002060006101000a81548173ffffffffffffffffffffffffffffffffffffffff021916908373ffffffffffffffffffffffffffffffffffffffff160217905550808273ffffffffffffffffffffffffffffffffffffffff16610de583610698565b73ffffffffffffffffffffffffffffffffffffffff167f8c5be1e5ebec7d5bd14f71427d1e84f3dd0314c0f7b2291e5b200ac8c7c3b92560405160405180910390a45050565b6000610e3682610cfe565b610e75576040517f08c379a0000000000000000000000000000000000000000000000000000000008152600401610e6c906124ff565b60405180910390fd5b6000610e8083610698565b90508073ffffffffffffffffffffffffffffffffffffffff168473ffffffffffffffffffffffffffffffffffffffff161480610eef57508373ffffffffffffffffffffffffffffffffffffffff16610ed78461047b565b73ffffffffffffffffffffffffffffffffffffffff16145b80610f005750610eff8185610c00565b5b91505092915050565b8273ffffffffffffffffffffffffffffffffffffffff16610f2982610698565b73ffffffffffffffffffffffffffffffffffffffff1614610f7f576040517f08c379a0000000000000000000000000000000000000000000000000000000008152600401610f76906125ff565b60405180910390fd5b600073ffffffffffffffffffffffffffffffffffffffff168273ffffffffffffffffffffffffffffffffffffffff161415610fef576040517f08c379a0000000000000000000000000000000000000000000000000000000008152600401610fe6906124bf565b60405180910390fd5b610ffa838383611335565b611005600082610d72565b6001600360008573ffffffffffffffffffffffffffffffffffffffff1673ffffffffffffffffffffffffffffffffffffffff168152602001908152602001600020600082825461105591906127f5565b925050819055506001600360008473ffffffffffffffffffffffffffffffffffffffff1673ffffffffffffffffffffffffffffffffffffffff16815260200190815260200160002060008282546110ac919061276e565b92505081905550816002600083815260200190815260200160002060006101000a81548173ffffffffffffffffffffffffffffffffffffffff021916908373ffffffffffffffffffffffffffffffffffffffff160217905550808273ffffffffffffffffffffffffffffffffffffffff168473ffffffffffffffffffffffffffffffffffffffff167fddf252ad1be2c89b69c2b068fc378daa952ba7f163c4a11628f55a4df523b3ef60405160405180910390a4505050565b6001816000016000828254019250508190555050565b600081600001549050919050565b6111a382826040518060200160405280600081525061133a565b5050565b6111b082610cfe565b6111ef576040517f08c379a00000000000000000000000000000000000000000000000000000000081526004016111e69061257f565b60405180910390fd5b806006600084815260200190815260200160002090805190602001906112169291906118ba565b505050565b611226848484610f09565b61123284848484611395565b611271576040517f08c379a00000000000000000000000000000000000000000000000000000000081526004016112689061247f565b60405180910390fd5b50505050565b606060405180602001604052806000815250905090565b606061129982610cfe565b6112d8576040517f08c379a00000000000000000000000000000000000000000000000000000000081526004016112cf9061261f565b60405180910390fd5b60006112e2611277565b90506000815111611302576040518060200160405280600081525061132d565b8061130c8461152c565b60405160200161131d9291906123b7565b6040516020818303038152906040525b915050919050565b505050565b61134483836116d9565b6113516000848484611395565b611390576040517f08c379a00000000000000000000000000000000000000000000000000000000081526004016113879061247f565b60405180910390fd5b505050565b60006113b68473ffffffffffffffffffffffffffffffffffffffff166118a7565b1561151f578373ffffffffffffffffffffffffffffffffffffffff1663150b7a026113df610d6a565b8786866040518563ffffffff1660e01b815260040161140194939291906123f6565b602060405180830381600087803b15801561141b57600080fd5b505af192505050801561144c57506040513d601f19601f820116820180604052508101906114499190611c66565b60015b6114cf573d806000811461147c576040519150601f19603f3d011682016040523d82523d6000602084013e611481565b606091505b506000815114156114c7576040517f08c379a00000000000000000000000000000000000000000000000000000000081526004016114be9061247f565b60405180910390fd5b805181602001fd5b63150b7a0260e01b7bffffffffffffffffffffffffffffffffffffffffffffffffffffffff1916817bffffffffffffffffffffffffffffffffffffffffffffffffffffffff191614915050611524565b600190505b949350505050565b60606000821415611574576040518060400160405280600181526020017f300000000000000000000000000000000000000000000000000000000000000081525090506116d4565b600082905060005b600082146115a657808061158f90612911565b915050600a8261159f91906127c4565b915061157c565b60008167ffffffffffffffff8111156115e8577f4e487b7100000000000000000000000000000000000000000000000000000000600052604160045260246000fd5b6040519080825280601f01601f19166020018201604052801561161a5781602001600182028036833780820191505090505b5090505b600085146116cd5760018261163391906127f5565b9150600a85611642919061295a565b603061164e919061276e565b60f81b81838151811061168a577f4e487b7100000000000000000000000000000000000000000000000000000000600052603260045260246000fd5b60200101907effffffffffffffffffffffffffffffffffffffffffffffffffffffffffffff1916908160001a905350600a856116c691906127c4565b945061161e565b8093505050505b919050565b600073ffffffffffffffffffffffffffffffffffffffff168273ffffffffffffffffffffffffffffffffffffffff161415611749576040517f08c379a00000000000000000000000000000000000000000000000000000000081526004016117409061259f565b60405180910390fd5b61175281610cfe565b15611792576040517f08c379a00000000000000000000000000000000000000000000000000000000081526004016117899061249f565b60405180910390fd5b61179e60008383611335565b6001600360008473ffffffffffffffffffffffffffffffffffffffff1673ffffffffffffffffffffffffffffffffffffffff16815260200190815260200160002060008282546117ee919061276e565b92505081905550816002600083815260200190815260200160002060006101000a81548173ffffffffffffffffffffffffffffffffffffffff021916908373ffffffffffffffffffffffffffffffffffffffff160217905550808273ffffffffffffffffffffffffffffffffffffffff16600073ffffffffffffffffffffffffffffffffffffffff167fddf252ad1be2c89b69c2b068fc378daa952ba7f163c4a11628f55a4df523b3ef60405160405180910390a45050565b600080823b905060008111915050919050565b8280546118c6906128df565b90600052602060002090601f0160209004810192826118e8576000855561192f565b82601f1061190157805160ff191683800117855561192f565b8280016001018555821561192f579182015b8281111561192e578251825591602001919060010190611913565b5b50905061193c9190611940565b5090565b5b80821115611959576000816000905550600101611941565b5090565b600061197061196b846126cb565b61269a565b90508281526020810184848401111561198857600080fd5b61199384828561289d565b509392505050565b60006119ae6119a9846126fb565b61269a565b9050828152602081018484840111156119c657600080fd5b6119d184828561289d565b509392505050565b6000813590506119e881612a58565b92915050565b6000813590506119fd81612a6f565b92915050565b600081359050611a1281612a86565b92915050565b600081519050611a2781612a86565b92915050565b600082601f830112611a3e57600080fd5b8135611a4e84826020860161195d565b91505092915050565b600082601f830112611a6857600080fd5b8135611a7884826020860161199b565b91505092915050565b600081359050611a9081612a9d565b92915050565b600060208284031215611aa857600080fd5b6000611ab6848285016119d9565b91505092915050565b60008060408385031215611ad257600080fd5b6000611ae0858286016119d9565b9250506020611af1858286016119d9565b9150509250929050565b600080600060608486031215611b1057600080fd5b6000611b1e868287016119d9565b9350506020611b2f868287016119d9565b9250506040611b4086828701611a81565b9150509250925092565b60008060008060808587031215611b6057600080fd5b6000611b6e878288016119d9565b9450506020611b7f878288016119d9565b9350506040611b9087828801611a81565b925050606085013567ffffffffffffffff811115611bad57600080fd5b611bb987828801611a2d565b91505092959194509250565b60008060408385031215611bd857600080fd5b6000611be6858286016119d9565b9250506020611bf7858286016119ee565b9150509250929050565b60008060408385031215611c1457600080fd5b6000611c22858286016119d9565b9250506020611c3385828601611a81565b9150509250929050565b600060208284031215611c4f57600080fd5b6000611c5d84828501611a03565b91505092915050565b600060208284031215611c7857600080fd5b6000611c8684828501611a18565b91505092915050565b600060208284031215611ca157600080fd5b600082013567ffffffffffffffff811115611cbb57600080fd5b611cc784828501611a57565b91505092915050565b600060208284031215611ce257600080fd5b6000611cf084828501611a81565b91505092915050565b611d0281612829565b82525050565b611d118161283b565b82525050565b6000611d228261272b565b611d2c8185612741565b9350611d3c8185602086016128ac565b611d4581612a47565b840191505092915050565b6000611d5b82612736565b611d658185612752565b9350611d758185602086016128ac565b611d7e81612a47565b840191505092915050565b6000611d9482612736565b611d9e8185612763565b9350611dae8185602086016128ac565b80840191505092915050565b6000611dc7603283612752565b91507f4552433732313a207472616e7366657220746f206e6f6e20455243373231526560008301527f63656976657220696d706c656d656e74657200000000000000000000000000006020830152604082019050919050565b6000611e2d601c83612752565b91507f4552433732313a20746f6b656e20616c7265616479206d696e746564000000006000830152602082019050919050565b6000611e6d602483612752565b91507f4552433732313a207472616e7366657220746f20746865207a65726f2061646460008301527f72657373000000000000000000000000000000000000000000000000000000006020830152604082019050919050565b6000611ed3601983612752565b91507f4552433732313a20617070726f766520746f2063616c6c6572000000000000006000830152602082019050919050565b6000611f13602c83612752565b91507f4552433732313a206f70657261746f7220717565727920666f72206e6f6e657860008301527f697374656e7420746f6b656e00000000000000000000000000000000000000006020830152604082019050919050565b6000611f79603883612752565b91507f4552433732313a20617070726f76652063616c6c6572206973206e6f74206f7760008301527f6e6572206e6f7220617070726f76656420666f7220616c6c00000000000000006020830152604082019050919050565b6000611fdf602a83612752565b91507f4552433732313a2062616c616e636520717565727920666f7220746865207a6560008301527f726f2061646472657373000000000000000000000000000000000000000000006020830152604082019050919050565b6000612045602983612752565b91507f4552433732313a206f776e657220717565727920666f72206e6f6e657869737460008301527f656e7420746f6b656e00000000000000000000000000000000000000000000006020830152604082019050919050565b60006120ab602e83612752565b91507f45524337323155524953746f726167653a2055524920736574206f66206e6f6e60008301527f6578697374656e7420746f6b656e0000000000000000000000000000000000006020830152604082019050919050565b6000612111602083612752565b91507f4552433732313a206d696e7420746f20746865207a65726f20616464726573736000830152602082019050919050565b6000612151603183612752565b91507f45524337323155524953746f726167653a2055524920717565727920666f722060008301527f6e6f6e6578697374656e7420746f6b656e0000000000000000000000000000006020830152604082019050919050565b60006121b7602c83612752565b91507f4552433732313a20617070726f76656420717565727920666f72206e6f6e657860008301527f697374656e7420746f6b656e00000000000000000000000000000000000000006020830152604082019050919050565b600061221d602983612752565b91507f4552433732313a207472616e73666572206f6620746f6b656e2074686174206960008301527f73206e6f74206f776e00000000000000000000000000000000000000000000006020830152604082019050919050565b6000612283602f83612752565b91507f4552433732314d657461646174613a2055524920717565727920666f72206e6f60008301527f6e6578697374656e7420746f6b656e00000000000000000000000000000000006020830152604082019050919050565b60006122e9602183612752565b91507f4552433732313a20617070726f76616c20746f2063757272656e74206f776e6560008301527f72000000000000000000000000000000000000000000000000000000000000006020830152604082019050919050565b600061234f603183612752565b91507f4552433732313a207472616e736665722063616c6c6572206973206e6f74206f60008301527f776e6572206e6f7220617070726f7665640000000000000000000000000000006020830152604082019050919050565b6123b181612893565b82525050565b60006123c38285611d89565b91506123cf8284611d89565b91508190509392505050565b60006020820190506123f06000830184611cf9565b92915050565b600060808201905061240b6000830187611cf9565b6124186020830186611cf9565b61242560408301856123a8565b81810360608301526124378184611d17565b905095945050505050565b60006020820190506124576000830184611d08565b92915050565b600060208201905081810360008301526124778184611d50565b905092915050565b6000602082019050818103600083015261249881611dba565b9050919050565b600060208201905081810360008301526124b881611e20565b9050919050565b600060208201905081810360008301526124d881611e60565b9050919050565b600060208201905081810360008301526124f881611ec6565b9050919050565b6000602082019050818103600083015261251881611f06565b9050919050565b6000602082019050818103600083015261253881611f6c565b9050919050565b6000602082019050818103600083015261255881611fd2565b9050919050565b6000602082019050818103600083015261257881612038565b9050919050565b600060208201905081810360008301526125988161209e565b9050919050565b600060208201905081810360008301526125b881612104565b9050919050565b600060208201905081810360008301526125d881612144565b9050919050565b600060208201905081810360008301526125f8816121aa565b9050919050565b6000602082019050818103600083015261261881612210565b9050919050565b6000602082019050818103600083015261263881612276565b9050919050565b60006020820190508181036000830152612658816122dc565b9050919050565b6000602082019050818103600083015261267881612342565b9050919050565b600060208201905061269460008301846123a8565b92915050565b6000604051905081810181811067ffffffffffffffff821117156126c1576126c0612a18565b5b8060405250919050565b600067ffffffffffffffff8211156126e6576126e5612a18565b5b601f19601f8301169050602081019050919050565b600067ffffffffffffffff82111561271657612715612a18565b5b601f19601f8301169050602081019050919050565b600081519050919050565b600081519050919050565b600082825260208201905092915050565b600082825260208201905092915050565b600081905092915050565b600061277982612893565b915061278483612893565b9250827fffffffffffffffffffffffffffffffffffffffffffffffffffffffffffffffff038211156127b9576127b861298b565b5b828201905092915050565b60006127cf82612893565b91506127da83612893565b9250826127ea576127e96129ba565b5b828204905092915050565b600061280082612893565b915061280b83612893565b92508282101561281e5761281d61298b565b5b828203905092915050565b600061283482612873565b9050919050565b60008115159050919050565b60007fffffffff0000000000000000000000000000000000000000000000000000000082169050919050565b600073ffffffffffffffffffffffffffffffffffffffff82169050919050565b6000819050919050565b82818337600083830152505050565b60005b838110156128ca5780820151818401526020810190506128af565b838111156128d9576000848401525b50505050565b600060028204905060018216806128f757607f821691505b6020821081141561290b5761290a6129e9565b5b50919050565b600061291c82612893565b91507fffffffffffffffffffffffffffffffffffffffffffffffffffffffffffffffff82141561294f5761294e61298b565b5b600182019050919050565b600061296582612893565b915061297083612893565b9250826129805761297f6129ba565b5b828206905092915050565b7f4e487b7100000000000000000000000000000000000000000000000000000000600052601160045260246000fd5b7f4e487b7100000000000000000000000000000000000000000000000000000000600052601260045260246000fd5b7f4e487b7100000000000000000000000000000000000000000000000000000000600052602260045260246000fd5b7f4e487b7100000000000000000000000000000000000000000000000000000000600052604160045260246000fd5b6000601f19601f8301169050919050565b612a6181612829565b8114612a6c57600080fd5b50565b612a788161283b565b8114612a8357600080fd5b50565b612a8f81612847565b8114612a9a57600080fd5b50565b612aa681612893565b8114612ab157600080fd5b5056fea26469706673582212204b0cdfa4f052b0a6d0c3f1bdf6544f70df4f0aac51b1547924e274dfb677ba3464736f6c63430008000033",
  "immutableReferences": {},
  "source": "// SPDX-License-Identifier: MIT\npragma solidity ^0.8.0;\n\nimport \"@openzeppelin/contracts/token/ERC721/ERC721.sol\";\nimport \"@openzeppelin/contracts/token/ERC721/extensions/ERC721URIStorage.sol\";\nimport \"@openzeppelin/contracts/utils/Counters.sol\";\n\ncontract MyNFT is ERC721URIStorage {\n  using Counters for Counters.Counter;\n  Counters.Counter private _tokenIds;\n\n    constructor() ERC721(\"WPM NFT\", \"WPM-NFT\") public {\n}\n\n    function pressMintButton(string memory tokenURI) public returns(uint256) {\n      _tokenIds.increment();\n      uint256 currentTokenId = _tokenIds.current();\n      _safeMint(msg.sender, currentTokenId);\n      _setTokenURI(currentTokenId, tokenURI);\n      return currentTokenId;\n    }\n  }\n\n/* function setTokenURI(uint256 _tokenId) public {\n  require(\n    _isApprovedOrOwner(msg.sender, _tokenId),\n    \"ERC721: caller of setTokenURI is not owner or approved\"\n    );\n    tokenURI(_tokenId); */\n\n/* contract SimpleStorage {\n  string ipfsHash;\n\n  function set(string memory _ipfsHash) public {\n    ipfsHash = _ipfsHash;\n  }\n\n  function get() public view returns (string memory) {\n    return ipfsHash;\n  }\n} */\n",
  "sourcePath": "/Users/willmcdonnell/sei/projects/nft-mint-app/contracts/MyNFT.sol",
  "compiler": {
    "name": "solc",
    "version": "0.8.0+commit.c7dfd78e.Emscripten.clang"
  },
  "schemaVersion": "3.4.1",
  "updatedAt": "2021-06-29T00:50:07.916Z",
  "networkType": "ethereum",
  "devdoc": {
    "kind": "dev",
    "methods": {
      "approve(address,uint256)": {
        "details": "See {IERC721-approve}."
      },
      "balanceOf(address)": {
        "details": "See {IERC721-balanceOf}."
      },
      "getApproved(uint256)": {
        "details": "See {IERC721-getApproved}."
      },
      "isApprovedForAll(address,address)": {
        "details": "See {IERC721-isApprovedForAll}."
      },
      "name()": {
        "details": "See {IERC721Metadata-name}."
      },
      "ownerOf(uint256)": {
        "details": "See {IERC721-ownerOf}."
      },
      "safeTransferFrom(address,address,uint256)": {
        "details": "See {IERC721-safeTransferFrom}."
      },
      "safeTransferFrom(address,address,uint256,bytes)": {
        "details": "See {IERC721-safeTransferFrom}."
      },
      "setApprovalForAll(address,bool)": {
        "details": "See {IERC721-setApprovalForAll}."
      },
      "supportsInterface(bytes4)": {
        "details": "See {IERC165-supportsInterface}."
      },
      "symbol()": {
        "details": "See {IERC721Metadata-symbol}."
      },
      "tokenURI(uint256)": {
        "details": "See {IERC721Metadata-tokenURI}."
      },
      "transferFrom(address,address,uint256)": {
        "details": "See {IERC721-transferFrom}."
      }
    },
    "version": 1
  },
  "userdoc": {
    "kind": "user",
    "methods": {},
    "version": 1
  }
}